S02B0000433A2F55736572732F757365722F4465736B746F702F50726F6A6563742F746573744B6579626F61CF
S11300203A3131000C2000C6440000053A88230010
S1130030262600C037000043C43F40033A7058638B
S1130040601D0064260500804400C0BD34004404E3
S11300500400408C3500C08D061C0000A01C006408
S113006026050080C4FFFFBD340044040400408C16
S11300703500C08D06150000E01A006426050080D6
S1130080C4FF7FAD340044040404408C3500408D2B
S1130090060E0000201D006426050080440040ADCB
S11300A0340044040404408C3500408D06070000ED
S11300B0A016006426050080340044040404408C27
S11300C0540080053500808D0600000004FF7FEF9A
S10700D03A0880EF77
S11304003400040204400042340044020441404ADF
S11304100400C00504008005040040053700804A3C
S11304204400C0023AB0945A3500804A0420C00205
S1130430FA7001584400C0023A70015844000005A3
S113044084028002260300B5C4FFBF521EFD3F5044
S113045006FB3F0034008400040880103400C00010
S11304600402C0183500C0103A8817003A700158C9
S107047006FD3F0042
S9030400F8
